{
  "contractName": "Election2",
  "abi": [
    {
      "constant": true,
      "inputs": [],
      "name": "candidatesCount",
      "outputs": [
        {
          "name": "",
          "type": "uint256"
        }
      ],
      "payable": false,
      "stateMutability": "view",
      "type": "function"
    },
    {
      "constant": true,
      "inputs": [
        {
          "name": "",
          "type": "uint256"
        }
      ],
      "name": "candidates",
      "outputs": [
        {
          "name": "id",
          "type": "uint256"
        },
        {
          "name": "name",
          "type": "string"
        },
        {
          "name": "voteCount",
          "type": "uint256"
        }
      ],
      "payable": false,
      "stateMutability": "view",
      "type": "function"
    },
    {
      "constant": false,
      "inputs": [],
      "name": "Election",
      "outputs": [],
      "payable": false,
      "stateMutability": "nonpayable",
      "type": "function"
    }
  ],
  "bytecode": "0x608060405234801561001057600080fd5b506103e5806100206000396000f300608060405260043610610057576000357c0100000000000000000000000000000000000000000000000000000000900463ffffffff1680631d6c263c1461005c5780632d35a8a2146100735780633477ee2e1461009e575b600080fd5b34801561006857600080fd5b50610071610152565b005b34801561007f57600080fd5b506100886101d0565b6040518082815260200191505060405180910390f35b3480156100aa57600080fd5b506100c9600480360381019080803590602001909291905050506101d6565b6040518084815260200180602001838152602001828103825284818151815260200191508051906020019080838360005b838110156101155780820151818401526020810190506100fa565b50505050905090810190601f1680156101425780820380516001836020036101000a031916815260200191505b5094505050505060405180910390f35b6101906040805190810160405280600b81526020017f43616e6469646174652031000000000000000000000000000000000000000000815250610298565b6101ce6040805190810160405280600b81526020017f43616e6469646174652032000000000000000000000000000000000000000000815250610298565b565b60015481565b6000602052806000526040600020600091509050806000015490806001018054600181600116156101000203166002900480601f0160208091040260200160405190810160405280929190818152602001828054600181600116156101000203166002900480156102885780601f1061025d57610100808354040283529160200191610288565b820191906000526020600020905b81548152906001019060200180831161026b57829003601f168201915b5050505050908060020154905083565b600160008154809291906001019190505550606060405190810160405280600154815260200182815260200160008152506000806001548152602001908152602001600020600082015181600001556020820151816001019080519060200190610303929190610314565b506040820151816002015590505050565b828054600181600116156101000203166002900490600052602060002090601f016020900481019282601f1061035557805160ff1916838001178555610383565b82800160010185558215610383579182015b82811115610382578251825591602001919060010190610367565b5b5090506103909190610394565b5090565b6103b691905b808211156103b257600081600090555060010161039a565b5090565b905600a165627a7a723058200467c16d8a45ad76e5a311d7cee18abdc0dd6ff7329d12bc2b115a47466ba22c0029",
  "source": "pragma solidity ^0.4.20;\n\ncontract Election2 {\n\t//Model a Candidate\n\tstruct Candidate {\n\t\tuint id;\n\t\tstring name;\n\t\tuint voteCount;\n\t}\n\n\t//Read/write Candidates\n\t\tmapping(uint => Candidate) public candidates;\n\n\t//Store Candidates Count\n\tuint public candidatesCount;\n\n\tfunction addCandidate(string _name) private {\n\t\tcandidatesCount++;\n\t\tcandidates[candidatesCount] = Candidate(candidatesCount, _name, 0);\n\t}\n\n\tfunction Election () public {\n\t\taddCandidate(\"Candidate 1\");\n\t\taddCandidate(\"Candidate 2\");\n\t}\n\t\n}",
  "sourcePath": "/home/ricardo/Personal/ETH_practice/election/contracts/Election2.sol",
  "compiler": {
    "name": "solc",
    "version": "0.4.26+commit.4563c3fc.Emscripten.clang"
  },
  "schemaVersion": "3.0.6",
  "updatedAt": "2019-06-15T04:17:06.834Z",
  "devdoc": {
    "methods": {}
  },
  "userdoc": {
    "methods": {}
  }
}